S00B00004156522E7372656330
S1130000C1C0D9C0D8C0D7C0D6C0D5C0D4C0D3C051
S1130010D2C0D1C0D0C0CFC0CEC0CDC0CCC0CBC068
S1130020CAC0C9C0C8C00C000000011C0000000107
S11300301E000000031C000000031C000000031C41
S1130040000000031E000000031F000000073FE043
S11300500000073FF00000073FF80000073FFC00E6
S113006000071FFE0000072FFF0000075FF90000D4
S113007007FBFB800007F9FC600007F7F27C000730
S1130080DFE37E1F8FDFC17FFFCFCBC07FF81F412F
S1130090803FF0B378803FF0037C001FC0037C00F6
S11300A00F800370000F0003F000000003F0000055
S11300B00003680000000708038000070007C00071
S11300C007037FE0000F03FFE0000700DFC0000725
S11300D005DFF000074FEFFFC00759EFFFF0075FA0
S11300E0EFFFF0071FEFFFE0071FBFFFC0070FFE82
S11300F0FF00070FFFF1C00F4FBF43001F3FFF007A
S1130100000F1FFE00000F0FFC00000F1FFE000079
S11301100F1FFF8000071FEFC0000F3FE600001F06
S11301203FE600000F7FEF20000F7FFFB0000F3F7E
S1130130FF88000F3FFE14000F3FFC30F01F1FC963
S1130140D9F00F3FF041E01F1FD81BE00F1F9009AB
S1130150F00F3D600FF8070E0004FC071C00006060
S1130160071B000000071E000000031C0000100312
S11301701C000030031800002001080000000108E2
S11301800000000111241FBECFEDCDBF10E0A0E69A
S1130190B0E0EAE7F5E002C005900D92A236B1079F
S11301A0D9F720E0A2E6B0E001C01D92A936B2075B
S11301B0E1F71ED0E0C124CF84E082BB80B382FB90
S11301C0882780F908951EBC1DBC1CBCF5DF88235C
S11301D0E9F3F2DF8130E9F383E08EBDEDDF8823BC
S11301E0E9F3EADF8130E9F31EBC8CB59DB50895CF
S11301F087E087BB11BAC6E4D0E083E0F82E00E8BC
S113020010E0809160008F5F809360008B3FB0F0BE
S113021010926000D8DFBE019AD180E090E09ED0B9
S113022028E431EE4AE75FE3FFD06CD070936500B9
S1130230609364001092680010926700109263004B
S1130240809163008634E8F61EBC1DBC1CBCFEBC59
S11302501092660080916600853080F510926300EC
S113026080916300E0916600883020F5980102C017
S1130270359527958A95E2F7F0E0EA5DFF4F809186
S1130280670090916800E80FF91F8491822380939E
S1130290620090E02817390711F4C29A01C0C2988D
S11302A088B3867088BBC09A809163008F5F809307
S11302B06300D6CFEF5FE0936600CCCF80916700F8
S11302C09091680005968E3521E0920729F090936D
S11302D068008093670004C0109268001092670061
S11302E0C19A88B318BA80916400909165002CB5C6
S11302F03DB528173907D9F7809163008F5F809344
S113030063009ECF70D088F09F5790F0B92F992743
S1130310B751A0F0D1F0660F771F881F991F1AF00C
S1130320BA95C9F712C0B13081F077D0B1E0089521
S113033074C0672F782F8827B85F39F0B93FCCF3A2
S1130340869577956795B395D9F73EF49095809502
S1130350709561957F4F8F4F9F4F0895E89409C022
S113036097FB3EF490958095709561957F4F8F4FE4
S11303709F4F9923A9F0F92F96E9BB279395F695FA
S1130380879577956795B795F111F8CFFAF4BB0F78
S113039011F460FF1BC06F5F7F4F8F4F9F4F16C0DC
S11303A0882311F096E911C0772321F09EE8872F66
S11303B0762F05C0662371F096E8862F70E060E022
S11303C02AF09A95660F771F881FDAF7880F96959B
S11303D0879597F9089557FD9058440F551F59F084
S11303E05F3F71F04795880F97FB991F61F09F3F1E
S11303F079F087950895121613061406551FF2CF47
S11304004695F1DF08C0161617061806991FF1CF96
S113041086957105610508940895E894BB276627BD
S11304207727CB0197F908950AD080C071D028F0BE
S113043076D018F0952309F062C067C0EFCFCBDF08
S1130440A8F39923D9F35523C9F3950F50E0551F09
S1130450AA27EE27FF27BB2700240894679520F4DA
S1130460E20FF31FB41F0A1E220F331F441FAA1FDB
S11304706695A9F7779530F4F30FB41F0A1E121E80
S113048008F46395330F441FAA1F221F769599F72A
S1130490879520F4B40F0A1E121E631F440FAA1F6F
S11304A0221F331F8695A9F7862F712D602D1124E5
S11304B09F5750408AF0E1F088234AF0EE0FFF1F67
S11304C0BB1F661F771F881F91505040A9F79E3F9E
S11304D0510570F014C0A2CF5F3FECF3983EDCF3FB
S11304E0869577956795B795F795E7959F5FC1F7DB
S11304F0FE2B880F911D9695879597F9089597F986
S11305009F6780E870E060E008959FEF80EC0895B5
S113051000240A94161617061806090608950024DE
S11305200A9412161306140605060895092E039458
S1130530000C11F4882352F0BB0F40F4BF2B11F4CC
S113054060FF04C06F5F7F4F8F4F9F4F0895AA1BBA
S1130550BB1B51E107C0AA1FBB1FA617B70710F0AA
S1130560A61BB70B881F991F5A95A9F780959095DC
S10D0570BC01CD010895F894FFCFFB
S105057AFA0081
S903006795
